:0D2602004A008E00000000000000000000F3
:03001B000224704C
:10247000C0E0C083C082C0D090008EE07002A3E0B4
:10248000600E90008FE024FFF090008EE034FFF0AB
:10249000900090E07002A3E0600E900091E024FFB5
:1024A000F0900090E034FFF0900092E07002A3E022
:1024B000600E900093E024FFF0900092E034FFF073
:1024C000900094E07002A3E0600E900095E024FF7D
:1024D000F0900094E034FFF0900096E07002A3E0EA
:1024E000600E900097E024FFF0900096E034FFF03B
:0924F000D0D0D082D083D0E032BC
:10260F004100870141007E004100880041008900A0
:101CF100C2AF122B81122C60122C73122338122ABC
:101D01008C122B9C7F0A7E00122C1DC296122CA8CD
:101D1100D2A0D2A1D2CAD284D283D282D2B4D2C822
:101D21007F0A7E00122C1D7F05122C4CEF2480FEB1
:101D3100E434FF90008CF0A3CEF07F0A7E00122CD9
:101D41001D7F04122C4CEF2480FEE434FF900076BA
:101D5100F0A3CEF07F0A7E00122C1D7F02122C4CC4
:101D6100EF2480FEE434FF90008AF0A3CEF07F0AD6
:101D71007E00122C1D122731EF60147FF47E0112B8
:101D81002C1DC2A47FF47E01122C1DD2A480E61268
:101D910027DA7FF47E01122C1D1226DAC2A4D2AFFB
:101DA1007F02122C4C900083E4F0A3EFF07F017EC0
:101DB10000122C1D7F03122C4C900085E4F0A3EF40
:101DC100F07F017E00122C1D7F05122C4C900081AA
:101DD100E4F0A3EFF07F017E00122C1D7F04122C92
:101DE1004C90007FE4F0A3EFF07F017E00122C1DE8
:101DF10090007FE0FEA3E0FFC374FF9FFFE49EFE1F
:101E010090007FF0A3EFF090008CE0FCA3E0FDC315
:101E1100EF9DFFEE9CFEC3EF94FFEE648094804043
:101E21000890006474FFF0801FD3EF9400EE64808B
:101E310094805003E4800D90008CA3E0FF90007F1C
:101E4100A3E0C39F900064F0900076E0FEA3E0FF62
:101E5100900081E0FCA3E0FDC39FFFEC9EFEC3EF79
:101E610094FFEE64809480400890006574FFF080D8
:101E71001BD3EF9400EE648094805003E4800990BA
:101E81000076A3E0FFC3ED9F900065F090008AE02B
:101E9100FEA3E0FF900083E0FCA3E0FDC39FFFEC05
:101EA1009EFEC3EF94FFEE6480948040089000662C
:101EB10074FFF0801BD3EF9400EE64809480500394
:101EC100E4800990008AA3E0FFC3ED9F900066F0D3
:101ED100D3900086E094EB900085E064809480408C
:101EE1002A900064E09420502290007EE0700280ED
:101EF1003A900090E07002A3E07061900087E0707A
:101F01005B04F0D2967F647E008045D3900086E02A
:101F110094EB900085E064809480403B900064E005
:101F2100D394D0403290007EE0700D04F090009088
:101F3100E4F0A37464F08024900090E07002A3E0C8
:101F4100701A900087E0B40113E4F0D2967F64FE2A
:101F5100122C1DC2968005E490007EF0900087E06F
:101F6100700B900085A3E0900063F0800690006301
:101F710074FFF020C8089000677401F08005E490B8
:101F81000067F020B4089000687401F08005E490C7
:101F91000068F02082089000697401F08005E490E7
:101FA1000069F020830890006A7401F08005E490D4
:101FB100006AF020840890006B7401F08005E490C1
:101FC100006BF020CA0890006C7401F08005E49069
:101FD100006CF020A10890006D7401F08005E49080
:101FE100006DF020A00890006E7401F08005E4906F
:101FF100006FF090008EE07002A3E0702490008EDC
:10200100F0A3740AF0900062E004F0122BD07B017F
:102011007A0079621229C37F057E00122C1D122BD2
:10202100B67B017A00794E122908EF4E600AE490DE
:102031000089F090008804F0900092E07002A3E023
:10204100701E900092F0A37405F012209E900089FA
:10205100E0C394285005E004F08005E4900088F086
:10206100900094E07002A3E07018900094F0A374C3
:1020710019F0900087E0B40104B2A48002C2A41256
:102081002AFF900096E07002A3E06003021DA19078
:0D2091000096F0A37432F0122A2E021DA159
:10125200526F6C6C3A2020302E302020202000501B
:10126200697463683A20302E3020202020005961B2
:10127200773A202020302E302020202000506F7717
:1012820065723A20302E305620202000526F6C6C4E
:101292003A2020252E3166202020200050697463D8
:1012A200683A20252E31662020202000506F776575
:1012B200723A20252E3166562020202000506F776A
:1012C20065723A202020202020202000000000000B
:1012D200000000000000000000000000000000000C
:1012E200000080808000000000000000000080807C
:1012F20000000000000000000000000000000000EC
:1013020000000000000000000000000000000000DB
:1013120000000000000000000000000000000000CB
:1013220000000000000000000000000000000000BB
:1013320000000000000000000000000000000000AB
:10134200000000000000000000000000000000009B
:10135200000000000000000000000000000000008B
:10136200E0F0FF1F070F0E1C78F0F0F0F83E0F0FB1
:101372001FF8E880000000000000000000000000EC
:10138200000000000000000000000000000000005B
:10139200000000000000000000000000000000004B
:1013A200000000000000000000000000000000003B
:1013B200000000000000000000000000000000002B
:1013C200000000000000000000000000000000001B
:1013D200000000000000000000000000000000C843
:1013E200FFFFBF86868686868686FFFFFF86868605
:1013F2008687A7FFF8000000000000000000000040
:1014020000000000000000000000000000000000DA
:1014120000000000000000000000000000000000CA
:1014220000000000000000000000000000000000BA
:1014320000000000000000000000000000000000AA
:10144200000000000000000000000000000000009A
:101452000000000000000000000000000000000F7B
:101462001F1F7F797971F1F1F101010101F17171B0
:10147200311F1F0F0300000000000000FE02FE02E9
:10148200F29792F29792F20200FE02FE00007E4371
:1014920052525EC000000C4454B42407F604040403
:1014A2000C00013DA1BFF0C814D393169848100058
:1014B2000C94D4D4B49596B4D4948C00000000005B
:1014C200000000000000000000000000000000001A
:1014D2000000000000000000000000000000060EF6
:1014E2000E0C1CB8F8F8FCFFFF00000000FFFEFC29
:1014F200F8FEFE8E07030100000000000301030056
:101502000F04040704040F00000301030001010992
:10151200090908070000090909050503030505096A
:101522000900010908080F080B08090C0B0808003C
:10153200080A0A0A0A0F0A0A0A0B0A000000000037
:101542000000000000000000000000000000000099
:1015520000000000000000000000000000001E1E4D
:101562000E0E01010101FFFF0300000000017F7F59
:101572007F010101060606000000000000000000D5
:101582000000000000000000000000000000000059
:101592000000000000000000000000000000000049
:1015A2000000000000000000000000000000000039
:1015B2000000000000000000000000000000000029
:1015C2000000000000000000000000000000000019
:1015D200000000000060C000C0608000806060C049
:1015E20000C0608000806060C000C06080008060D9
:1015F20000000000E0402020C02020E00000E400C5
:101602000000A0A0E00000C060202060C060C00018
:10161200C0608000806000FC000000A0A0E000002C
:10162200FC402020C00000C0A0202000000000C01C
:101632006020202000C060202060C000E040202008
:10164200C02020E0000000000000000000000000B8
:101652000000000000000306010003040300000371
:101662000601000304030000030601000304030053
:101672000004000007000000070000070000070048
:10168200000704040700000306040406030003061F
:101692000100030403000007000007040407000020
:1016A200070404040300000404050300040000030B
:1016B20006040404000306040406030007000000F5
:1016C200070000070000000000000000FF0000000B
:1016D20000E0F8E4E4E4F8E0000000FFFF000000AE
:1016E2000007070707070707000000FFFF001804AD
:1016F20004E4F8E0E0E0E0E0000000FFFF000000AA
:101702000007070707070707000000FFFF00C0C028
:10171200F0F0F0F0F0F0F0F0F0F000FFFF00030363
:101722000F0F0F0F0F0F0F0F0F0F00FFFF00C0C0A3
:10173200F01010101010101010F000FFFF00030343
:101742000F08080808080808080F00FFFF00C0C0BB
:10175200F0F0F0101010101010F000FFFF00030363
:101762000F0F0F0808080808080F00FFFF00C0C08D
:10177200F0F0F0F0F010101010F000FFFF00030383
:101782000F0F0F0F0F080808080F00FFFF00C0C05F
:10179200F0F0F0F0F0F0F01010F000FFFF000303A3
:1017A2000F0F0F0F0F0F0F08080F00FFFF00C040B1
:1017B200701010101010101010F000FFFF00030244
:1017C2000E08080808080808080F00FF00FFFFFFBE
:1017D200FFFFFFFFFFFFFFFFFFFFFF0000FFFFFF15
:1017E200FFFFFFFFFFFFFFFFFFFFFF00FF000010F3
:1017F200387CE8C080000000000000FFFF0000000D
:101802000000000103173E1C080000FFFF0000005B
:10181200000000FCFC0C0C00000000FFFF000000B8
:101822000030303F3F000000000000FFFF000000DA
:1018320000000080C0E07038702000FFFF00040E3E
:101842001C0E070301000000000000FFFF00E0E0A3
:101852008080808080808080808000FFFF00010186
:0C1862000101010101010101070700FF65
:0C261F00410098004100990041009A0021
:102B9C009000177408F0A374FFF0A37412F0A374E0
:0A2BAC00CEF07B80E4FDFF02257EE1
:10221C009000141211DB00000000122B229000140D
:10222C001211CFE4FFFE7D407C40900014E0F8A337
:10223C00E0F9A3E0FAA3E0FB120C9C6016401490AA
:10224C00001B7402F0A374FFF0A37417F0A374AE18
:10225C0002232D7433FFFEFD7C40900014E0F8A3A4
:10226C00E0F9A3E0FAA3E0FB120C9C60164014907A
:10227C00001B7402F0A374FFF0A37417F0A3742E68
:10228C0002232D7F667E667D267C40900014E0F84C
:10229C00A3E0F9A3E0FAA3E0FB120C9C6015401339
:1022AC0090001B7402F0A374FFF0A37417F0A374D6
:1022BC004E806E7F9A7E997D197C40900014E0F8D8
:1022CC00A3E0F9A3E0FAA3E0FB120C9C6015401309
:1022DC0090001B7402F0A374FFF0A37417F0A374A6
:1022EC006E803E7FCD7ECC7D0C7C40900014E0F85F
:1022FC00A3E0F9A3E0FAA3E0FB120C9C90001B6096
:10230C001240107402F0A374FFF0A37417F0A374BE
:10231C008E800E7402F0A374FFF0A37417F0A374F4
:0B232C000EF07B80E4FD7F701224F9AE
:012337002283
:1029FC00900087E090001B70107404F0A374FFF03B
:102A0C00A37416F0A374EE800E7404F0A374FFF09C
:102A1C00A37416F0A374CEF07B807D027F70122419
:022A2C00F9228D
:1028C20090001B7406F0900098E0FF3395E0FEEF55
:1028D2007805C333CE33CED8F924EEF974173EFA15
:1028E20090001C74FFF0A3EAF0A3E9F07B807D0462
:1028F2007F701224F9900098E004F0E0C3648094A1
:05290200844002E4F036
:0129070022AD
:1026DA007BFF7A127952E4FDFF1227867BFF7A127A
:1026EA0079617D02E4FF1227867BFF7A1279707D79
:1026FA0004E4FF1227867BFF7A12797F7D06E4FFC6
:10270A0012278612221C1229FC1228C29000177462
:10271A0008F0A374FFF0A37417F0A374CEF07B80C3
:07272A007D067F7002257E91
:10209E009000001211DB0000000090009AE004F0A6
:1020AE00E0C3648094844002E4F090009AE0704CA7
:1020BE0090004FE0FC120D139000001211CF900013
:1020CE001774FFF0A37412F0A3748EF0900000E06A
:1020DE00FCA3E0FDA3E0FEA3E0FF90001A1211CFD7
:1020EE007B017A0079041218D3E4900012F07B0180
:1020FE007A007904FDFF12278612221C90009AE0C6
:10210E006401704D900050E0FC120D13900000120F
:10211E0011CF90001774FFF0A37412F0A3749EF009
:10212E00900000E0FCA3E0FDA3E0FEA3E0FF900022
:10213E001A1211CF7B017A0079041218D3E49000A1
:10214E0012F07B017A0079047D02FF122786122994
:10215E00FC90009AE0640260030221EA90004EE0D7
:10216E00FC120D13E4FBFA79207841120BFF90005C
:10217E00001211CF90001774FFF0A37412F0A37425
:10218E00AEF0900000E0FCA3E0FDA3E0FEA3E0FFB4
:10219E0090001A1211CF7B017A0079041218D3E441
:1021AE00900012F0122CB7EF4E6024900099E004CC
:1021BE00F0E0FFC39405400FEF940A4002E4F07B79
:1021CE00FF7A1279BF800E7B017A00790480067B3C
:1021DE00017A0079047D06E4FF12278690009AE0CA
:1021EE00B403287BFF7A1279707D04E4FF122786F0
:1021FE009000177408F0A374FFF0A37417F0A37483
:0E220E00CEF07B807D067F7012257E0228C2F6
:032CDF00C2A4226A
:052CDA00A5A5A5A5A5BC
:10262B0054006200000000000000000000000000E9
:10263B000000000000000054004E000000000000ED
:10264B00000000000000000000000000000045003A
:0E265B0049344310100145004434431010016F
:102ADC00E4FDFCC3ED9FEC9E50070DBD00010C8086
:102AEC00F2E4FCFDC3ED9FEC9E50070DBD00010C04
:022AFC0080F266
:012AFE0022B5
:042C36007F0C7E0091
:102C3A00D3EF9400EE9400400800EF1F70F21E805C
:022C4A00EF2277
:1027DA007FB07E04122C3AC2B6D2C2C2B57B017A4D
:1027EA000079499000097405F07F3012288912286F
:1027FA007B7D017F21122C0A7D017F22122C0A7D0A
:10280A001A7F24122C0AE4FD7F25122C0A7D147FDC
:10281A0031122C0A7D077F26122C0A7D7C7F20022A
:02282A002C0A76
:0A2A5E00EBF0A3EAF0A3E9F0C2C216
:022A6800AD07B8
:102A6A00E4FBED3392C1ED25E0FDD2B5122C36A27E
:102A7A00C9E4334DFD122C36C2B50BEBB408E3AFF3
:012A8A000546
:012A8B002228
:022B6300AD07BC
:102B6500C2C2122C36AF05122A68122C36E4FF12A7
:0B2B75002A68AD07122C36D2C2AF0553
:012B80002232
:062C0400C2B67DFF7F2730
:022C0A00AC0517
:102C0C00C2C2122A68AA07AF04122A68D2C2AF0243
:012C1C002295
:03294E00900006F0
:10295100122A5E90000AEFF0E4FC900009E0FFEC1F
:10296100C39F501CE4FF122A68900006E0FBA3E01D
:10297100FAA3E0F98C82758300EF1211890C80DAD9
:07298100D2C290000AE0FF42
:01298800222C
:0E287B007B017A0079449000097405F07F2AF1
:03288900900006B6
:10288C00122A5E90000AEFF0E4FC900009E0FFECE5
:10289C00C39F501A900006E0FBA3E475F0011211DF
:1028AC00ABA9F0FA121131FF122A680C80DCD2C2EB
:0528BC0090000AE0FF9E
:0128C10022F4
:102BB600122C04E4FD7FE2122C0A7D7F7F20122C6A
:0A2BC6000AD2B67F287E0A022C3ADC
:102BD000122C04E4FD7FE1122C0A7D7E7F20122C52
:0A2BE0000AD2B67F287E0A022C3AC2
:10290800900000EBF0A3EAF0A3E9F07F07122B6335
:102918008F20AD207F27122C0A300626C2B69000E1
:1029280000E0FBA3E0FAA3E0F99000097414F07F3B
:102938006112294EE4FD7FE2122C0AD2B67E007F96
:062948000122E4FEFF2263
:1029C300900000EBF0A3EAF0A3E9F0122C067DFFE0
:1029D3007FE1122C0AC2B612287B900000E0FBA311
:1029E300E0FAA3E0F99000097414F07FA01228899B
:0929F300D2B67FC87E00022C3A26
:1027310078007C007D017BFF7A2C79DA7E007F05B1
:1027410012110B7B017A0079009000097405F07F6A
:10275100301228897B017A0079009000097405F014
:102761007F1012294EE4FF74002FF582E43400F546
:1027710083E0B4A5050FEFB405EDEF640560037FB9
:0427810001227F00B2
:012785002231
:100003007F07122B63AC077F17122B63ECB42E060A
:06001300EFB41102B2A4DB
:0100190022C4
:10001E000000000000000000002F0000000007009C
:10002E00070000147F147F1400242A7F2A12006216
:10003E0064081323003649552250000005030000C2
:10004E0000001C224100000041221C000014083E4A
:10005E0008140008083E0808000000A06000000810
:10006E000808080800006060000000201008040264
:10007E00003E5149453E0000427F40000042615122
:10008E004946002141454B31001814127F100027BC
:10009E0045454539003C4A4949300001710905037F
:1000AE0000364949493600064949291E00003636B0
:1000BE000000000056360000000814224100001413
:1000CE0014141414000041221408000201510906F0
:1000DE0000324959513E007C1211127C007F494971
:1000EE004936003E41414122007F4141221C007FA2
:1000FE0049494941007F09090901003E4149497AB0
:10010E00007F0808087F0000417F41000020404129
:10011E003F01007F08142241007F40404040007F95
:10012E00020C027F007F0408107F003E4141413ED9
:10013E00007F09090906003E4151215E007F091921
:10014E0029460046494949310001017F0101003F1E
:10015E004040403F001F2040201F003F4038403F9E
:10016E000063140814630007087008070061514902
:10017E00454300007F41410000552A552A55000095
:10018E0041417F0000040201020400404040404013
:10019E00000001020400002054545478007F4844AB
:1001AE00443800384444442000384444487F0038E2
:1001BE005454541800087E0901020018A4A4A47C0B
:1001CE00007F080404780000447D400000408084D5
:1001DE007D00007F102844000000417F4000007C1D
:1001EE0004180478007C0804047800384444443829
:1001FE0000FC242424180018242418FC007C080475
:10020E00040800485454542000043F444020003C4D
:10021E004040207C001C2040201C003C4030403CD4
:10022E00004428102844001CA0A0A07C0044645464
:10023E004C441414141414140000000000000000A8
:10024E000000000000000000000000F800000000A8
:10025E00000000333000000000100C06100C0600E9
:10026E00000000000000000040C07840C078400050
:10027E00043F04043F040400007088FC08300000B2
:10028E00001820FF211E0000F008F000E01800000A
:10029E0000211C031E211E0000F0088870000000C3
:1002AE001E2123241927211010160E000000000015
:1002BE000000000000000000000000E01804020032
:1002CE00000000071820400000020418E0000000A3
:1002DE000040201807000000404080F080404000A1
:1002EE000202010F01020200000000F000000000F7
:1002FE000101011F010101000000000000000000CB
:10030E0080B070000000000000000000000000003F
:10031E0000010101010101010000000000000000C8
:10032E000030300000000000000000008060180463
:10033E00006018060100000000E010080810E00040
:10034E00000F102020100F00001010F80000000009
:10035E000020203F20200000007008080888700050
:10036E0000302824222130000030088888483000D0
:10037E000018202020110E000000C02010F80000F0
:10038E0000070424243F240000F808888808080089
:10039E000019212020110E0000E01088881800009E
:1003AE00000F112020110E0000380808C838080070
:1003BE000000003F000000000070880808887000F0
:1003CE00001C222121221C0000E010080810E00071
:1003DE000000312222110F00000000C0C0000000FA
:1003EE00000000303000000000000080000000001F
:1003FE000000806000000000000080402010080017
:10040E0000010204081020004040404040404000DF
:10041E0004040404040404000008102040800000BA
:10042E000020100804020100007048080808F000BF
:10043E000000003036010000C030C828E810E0008F
:10044E000718272423140B000000C038E00000001A
:10045E00203C23020227382008F888888870000084
:10046E00203F202020110E00C03008080808380058
:10047E00071820202010080008F808080810E000CF
:10048E00203F202020100F0008F88888E808100070
:10049E00203F20202320180008F88888E808100044
:1004AE00203F200003000000C0300808083800007C
:1004BE0007182020221E020008F808000008F8087D
:1004CE00203F210101213F20000808F80808000004
:1004DE000020203F2020000000000808F808080037
:1004EE00C08080807F00000008F888C028180800AF
:1004FE00203F20012638200008F8080000000000E8
:10050E00203F20202020300008F8F800F8F80800DE
:10051E00203F003F003F200008F830C00008F808D8
:10052E00203F200007183F00E01008080810E000E8
:10053E000F10202020100F0008F808080808F000FF
:10054E00203F210101010000E01008080810E00022
:10055E000F18242438504F0008F8888888887000B7
:10056E00203F2000030C3020007088080808380057
:10057E000038202121221C00180808F8080818004D
:10058E000000203F2000000008F808000008F808CE
:10059E00001F202020201F000878880000C838087F
:1005AE00000007380E010000F80800F80008F800F7
:1005BE00033C0700073C0300081868808068180891
:1005CE0020302C03032C30200838C800C83808000F
:1005DE000000203F2000000010080808C83808005E
:1005EE002038262120201800000000FE0202020002
:1005FE000000007F40404000000C30C000000000B2
:10060E00000000010638C00000020202FE000000D9
:10061E00004040407F00000000000402020204007F
:10062E0000000000000000000000000000000000BC
:10063E0080808080808080800002020400000000A4
:10064E00000000000000000000008080808000009C
:10065E000019242222223F2008F80080800000008A
:10066E00003F112020110E0000000080808000004D
:10067E00000E112020201100000000808088F8005C
:10068E00000E112020103F2000008080808000008E
:10069E00001F222222221300008080F088888818F2
:1006AE000020203F202000000000808080808000FD
:1006BE00006B94949493600008F800808080000092
:1006CE00203F210000203F2000809898000000006D
:1006DE000020203F2020000000000080989800009D
:1006EE0000C08080807F000008F8000080808000BD
:1006FE00203F24022D302000000808F800000000E2
:10070E000020203F2020000080808080808080009C
:10071E00203F20003F20003F80800080808000002E
:10072E00203F210000203F200000808080800000BC
:10073E00001F202020201F008080008080000000ED
:10074E0080FFA12020110E0000000080808080001C
:10075E00000E112020A0FF8080808000808080000D
:10076E0020203F212000010000008080808080003A
:10077E000033242424241900008080E080800000AF
:10078E000000001F202000008080000000808000FC
:10079E00001F202020103F2080808000008080805D
:1007AE0000010E30080601008080008000808080ED
:1007BE000F300C030C300F00008080008080800012
:1007CE000020312E0E31200080808000008080803D
:1007DE0080818E70180601000080808080808000ED
:1007EE000021302C2221300000000000807C02020B
:1007FE0000000000003F404000000000FF0000002D
:10080E0000000000FF0000000002027C80000000DB
:10081E000040403F000000000006010102020404F7
:10082E0000000000000000001060028C000E22127A
:10083E000AC20A12220E0000000000000000000092
:10084E00000000000000000004047E0120211109B8
:10085E0005FF050911212000000000000000000026
:10086E000000000000000000202020FF202000FFDC
:10087E000000FE0000FF000000000000000000006D
:10088E0000000000000000001030100F0888601FEC
:10089E0000003F0000FF000000000000000000000C
:1008AE00000000000000000000088888888889FA8F
:1008BE00888888888808000000000000000000007A
:1008CE00000000000000000000003F00000000FFDC
:1008DE00000010201F0000000000000000000000BB
:1008EE00000000000000000000FC0404FC0004C432
:1008FE005F44C4445FC40400000000000000000018
:10090E000000000000000000000F04040F0000FFB4
:10091E0044447F4444FF000000000000000000003B
:10092E00000000000000000000FC0404FC0000FCBD
:10093E0004060544847C0000000000000000000056
:10094E000000000000000000000F04040F00101350
:10095E001212125292423E000000000000000000EF
:10096E000000000000000000100C04841464050652
:10097E00F404040404140C00000000000000000045
:10098E000000000000000000048484444724140C7E
:10099E00070C142444840400000000000000000032
:1009AE00000000000000000002FA8282FE8040205B
:1009BE00504C434C5020400000000000000000004E
:1009CE00000000000000000008184884443F404426
:1009DE0058414E60584740000000000000000000E3
:1009EE000000000000000000100C2424A464252642
:1009FE002424A42424140C00000000000000000095
:100A0E000000000000000000404048494949497F6D
:100A1E004949494B484040000000000000000000DA
:100A2E00000000000000000004244484649C403058
:100A3E000FC8080828180000000000000000000081
:100A4E00000000000000000010080601824C201873
:100A5E000601061820408000000000000000000083
:100A6E000000000000000000404042CC0000FC04EA
:100A7E000200FC0404FC0000000000000000000066
:100A8E0000000000000000000040201F20404F44E6
:100A9E0042407F424443400000000000000000003E
:100AAE000000000000000000201008FC23108867E2
:100ABE0004F40424548C0000000000000000000028
:100ACE00000000000000000040300077808188B2F6
:100ADE00848380E000116000000000000000000030
:080AEE00000000000000000000
:102BEA00E4FDFCC3ED9FEC9E500F79147B71DBFE74
:092BFA00D9FC0DBD00010C80EABC
:012C030022AE
:10298900F583E5822CF582E43583F583E493FF7DB5
:01299900013C
:10299A00ED6004D2CB8002C2CBC294E4FEC287EFC0
:1029AA0030E704D2868002C286D287EF25E0FF0E86
:0829BA00EEB408E9D294D2CB7F
:0129C20022F2
:102B4300AC07ED24B0FFE4FD12299AEC54F0C45411
:102B53000F4410FF12299AEC540F4401FF02299AE3
:102C8600E4FD7F8D12299A7F1412299A7FAF0229BB
:012C96009AA3
:102C9700E4FD7F8D12299A7F1012299A7FAE0229AF
:012CA7009A92
:102A8C00E4FCEC24B0FFE4FD12299AE4FF12299A2D
:102A9C007F1012299AE4FB7D01E4FF12299A0BEBBB
:082AAC00B480F40CECB408DA6C
:012AB40022FF
:06267200AA07A905AF0351
:10267800E4FCEF24E0FBEAD3947F4004E4FA090980
:10268800AF02AD01122B43E4FC75F010EBA42CF55E
:1026980082E435F0F583E5822446F582E583340249
:1026A8001229930CECB408E1AF02E904FD122B43A4
:1026B800E4FC75F010EBA42CF582E435F0F583E525
:1026C80082244EF582E58334021229930CECB40877
:0226D800E122FD
:10278600900014EFF0A3EDF0A3EBF0A3EAF0A3E9B9
:01279600F052
:10279700E4A3F0900016E0FBA3E0FAA3E0F9A3E0BE
:1027A700F58275830012114AFB6027900014E0FF41
:1027B700A3E0FD122672900014E02408F0E0D39401
:1027C700784007E4F0A3E02402F0900019E004F059
:0227D70080C1BF
:0127D90022DD
:04282C00A907AA0549
:10283000E490009DF0122B43E4FC75F040EBA424DF
:1028400036F582E5F0340812298990009DE004F005
:102850000CECB410E5AF01EA04FD122B43E4FC7567
:10286000F040EBA42456F582E5F034081229899053
:0A287000009DE004F00CECB410E54C
:01287A00223B
:0A257E00900014EFF0900016EBF04F
:10258800E490001BF0A3F0900017E0FF54077008D8
:10259800EF131313541F800A900017E013131354FA
:1025A8001F0490001DF090001DEDF0900017E0FF53
:1025B80090001DE0FDC39F5040900014E0FF122BD7
:1025C80043E0FC900016E0FFECC39F5024900018F5
:1025D800E0FBA3E0FAA3E0F9A3E475F0011211AB64
:1025E80085F082F58312114AFF7D0112299A0C8029
:0925F800D290001DE004F080B255
:0126010022B6
:0A24F900900018EFF090001AEBF0CD
:10250300E490001FF0A3F090001BE0FF5407700855
:10251300EF131313541F800A90001BE0131313547B
:102523001F04900021F0900021EDF090001BE0FFCC
:10253300900021E0FDC39F5041900018E0FF122B53
:1025430043E0FC90001AE0FFECC39F502590001C71
:10255300E0FBA3E0FAA3E0F9A3E475F0011211ABE9
:1025630085F082F58312114AF4FF7D0112299A0C3A
:0A25730080D1900021E004F080B157
:01257D00223B
:10233800D2857F647E00122BEAC285122BEAD285F1
:10234800E4FD7FAE12299AE4FF12299A7F10122920
:102358009A7F4012299A7F8112299A7FCF12299A4F
:102368007FA112299A7FC812299A7FA612299A7FDB
:10237800A812299A7F3F12299A7FD312299AE4FF3B
:1023880012299A7FD512299A7F8012299A7FD91209
:10239800299A7FF112299A7FDA12299A7F12122933
:1023A8009A7FDB12299A7F4012299A7F2012299A54
:1023B8007F0212299A7F8D12299A7F1412299A7FF7
:1023C800A412299A7FA612299A7FAF12299A7FAF61
:0C23D80012299A122A8CE4FDFF022B430C
:0826690041009C0041009B00B0
:102B22007F01122C4CAC07E4120D13E4FBFA7980FE
:102B32007843120BFF7BD77AA379A07840120AF66A
:012B42002270
:102A2E0090004EE0C36480949F501F90009BE00482
:102A3E00F0E0C3940A4018900088E0B401119000B1
:0F2A4E0087E0700B90009C04F022E490009BF056
:012A5D002256
:102AFF00900087E0B40105E490009CF0900088E01E
:102B0F00700490009CF090009CE0B40103B29622F8
:032B1F00C2962239
:0A2CB70090009CE0FF3395E0FE2240
:0F2CA800439D3CE4F5BD75BC807F0AFE022C1DE8
:102C4C00EF4488F5BC00000000E5BC30E4FB53BC4D
:042C5C00EFAFBD22F7
:082CC1007F147E71DEFEDFFCD2
:012CC90022E8
:042C1D00AD07AC064D
:102C2100E4FBFAC3EB9DEA9C500A122CC10BBB00DA
:042C3100010A80EF25
:012C3500227C
:102B8100E4F594F593759240F591F596F595F5B2C6
:0B2B9100F5B1F5B4F5B3F5CAF5C922A3
:102C6000538EBF53890F758BE5758DBEC28FD28E83
:032C7000D2AB22C2
:102C7300759850438E0475D7D575D6FF438E01439F
:032C83008E10228E
:072CCA003098FDC298AF999C
:012CD10022E0
:082CD2008F993099FDC299228F
:030000000223E4F4
:0C23E400787FE4F6D8FD75812202242BDE
:100AF600EC4D6011E8497017ED33EC3304600DE4FA
:100B0600FCFFFEFD22E933E8330470F8020D7C1287
:100B16000D4758046009E4CC248150062850090288
:100B26000D86284003020D83C0E0EB4A7044B9806D
:100B360006D0E0FB020D72EF4E701CBD8008EBFF85
:100B4600EAFEE9FD80EBE98DF0A4FEE5F0020BDF9D
:100B5600E9CDF9EAFEEBFFEF89F0A4FCE5F0CE89DA
:100B6600F0A42EFFE435F0CD89F0A42DFEE435F097
:100B76008067EF4E7005BD80D780C3EF8BF0A4ACC5
:100B8600F0EE8BF0A42CFCE435F0F8EF8AF0A42C00
:100B9600E5F038FCE433CB8DF0A42CFCE5F03BF813
:100BA600EE8AF0A42CFCE5F038F8E433CF89F0A403
:100BB6002CFCE5F038CF3400CE89F0A42FFFE5F009
:100BC6003EFEE433C98DF0A42EFEE5F039CD8AF061
:100BD600A42FFFE5F03EFEE43DFD33D0E0FB5007D9
:100BE6000BBB000F020D86EC2CFCEF33FFEE33FE41
:060BF600ED33FD020D5E6F
:100BFC00020D86EC5D046005E859047003020D7C5F
:100C0C00120D47580460F6EC4860F2EC7004FDFEDF
:100C1C00FF22C860DB2481C85009C39860025006CB
:100C2C00020D839850CAF582E9294B4A7005AB82B4
:100C3C00020D7275F0007C1A7880C3EF9BEE9AED72
:100C4C0099400DC3EF9BFFEE9AFEED99FDE842F043
:100C5C00DC23ACF0D0E0FFD0E0FED0E0FDAB822096
:100C6C00E7101BEB60BAEC2CFCEF33FFEE33FEED20
:100C7C0033FD020D5EE803F830E705C0F075F000B7
:100C8C00EF2FFFEE33FEED33FD40B830E7C280AA04
:100C9C0074F8CC6480CCC86480C8F582046043C30B
:100CAC00EB9FF5F0EA9E42F0E99D42F0E89C45F09E
:100CBC0060305018E5825FFFE582F42B5582FB50C3
:100CCC00210ABA001D09B90019088016E5825BFBE0
:100CDC00E582F42F5582FF50090EBE00050DBD00B4
:100CEC00010CC3EB9FF5F0EA9E42F0E99D42F0E85F
:0D0CFC009C45F06007CC4820E701B3EC22D6
:100D090075F020800E75F010800575F0087D007E65
:100D1900007F003392D530D5031211C1EC33401056
:100D2900EF33FFEE33FEED33FDEC33FCD5F0ED226E
:0E0D3900E5F0247EA2D513CC92E7CDCEFF22AA
:10186E00E5082417F582E43400F583E0050822909C
:10187E000014300F03900017E475F00112120C02E1
:10188E0011312008E97F2ED2088018EF540F2490D2
:10189E00D43440D4FF300C0BEF24BFB41A005003E5
:1018AE002461FFE50960021509050CE50C700205BF
:1018BE000B300F0E900014E475F00112120CEF02B3
:1018CE001177022AB57403D20F8003E4C20FF50814
:1018DE00900014121223E4F509F50BF50CE50960DE
:1018EE00077F201218B180F5750AFFC209C208C21F
:1018FE000AC20BC20DC20EC21012187DFF700D303F
:10190E000F057F001218C2AF0CAE0B22B4255FC2BA
:10191E00D5C20C12187DFF24D0B40A00501A75F0EF
:10192E000A780930D50508B6FF0106C6A426F620AA
:10193E00D5047002D20B80D924CFB41A00EF500414
:10194E00C2E5D20C021BB4D20980C6D20880C0D226
:10195E000A80BCD2D580BAD20D80B47F201218B1C5
:10196E00200A077401B5090040F112186EFF121813
:10197E00B10218EBD210D20E809512186EFB12180F
:10198E006EFA12186EF94A4B700679B27A1C7BFF0A
:10199E00200A2EE509602A7E008E827583001211C0
:1019AE004A60060EEE650A70F0C2D5EBC0E0EAC0E2
:1019BE00E0E9C0E0EE121C15D0E0F9D0E0FAD0E07C
:1019CE00FB121131FF60AAEBC0E0EAC0E0E9C0E013
:1019DE001218B1D0E02401F9D0E03400FAD0E0FBC7
:1019EE00E50A0460DCD50AD98087D20A80A2121BD0
:1019FE00F760F7E50A700104120D91A90A600DE572
:101A0E000A600914F50A121C9FEF60F3EA30E70230
:101A1E00F404C3995079EAF4250A0430E701E4048A
:101A2E00F50A800D121BF760C1EA050A250A120D90
:101A3E0091EA900043F030E701E4250A04D50A0448
:101A4E00200D0114121C15E4C0E0121C9F900043DF
:101A5E00E0601320E70714F0121899802204F0D0EA
:101A6E00E014C0E07F00121899E50A600712189082
:101A7E00150A800B300D03121890D0E00218EBD02F
:101A8E00E00480C4121BF7609EE50A04120D9190CB
:101A9E000043EAF0E50A200D026001042404121C42
:011AAE001522
:101AAF0074FF04C0E0121C9F121899E50A200D0262
:101ABF006003121890D0E0B50AE87F451218A39082
:101ACF000043E07F2B30E7047F2DF404C0E01218B1
:101ADF00B1D0E075F00A84C0F012189AD0E0121855
:101AEF009A0218EB791080027908C20EC210800892
:101AFF00D2D5790A8004790AC2D5E50A047002F5B5
:101B0F000AE4FAFDFEFF12186EFC7B08200913127F
:101B1F00186EFD7B1030080A12186EFE12186EFF39
:101B2F007B20EC3382D592D55013C3E43008069F47
:101B3F00FFE49EFEE42009039DFDE49CFCE4CBF84A
:101B4F00C209EC700CCFCECDCCE824F8F870F3803E
:101B5F0017C3EF33FFEE33FEED33FDEC33FCEB3306
:101B6F00FB994002FB0FD8E9EB300905F8D0E0C430
:101B7F0048B209C0E00AEC4D4E4F78207B0070C28E
:101B8F00EAB50A0040BCC0E0121C17D0F0D0E0202C
:101B9F000904C4C0E0C4B209C0F012189AD0F0D53D
:101BAF00F0EB0218EB12122C1988531AF35819592B
:101BBF004C1955421AF74F1AFF441AFF49196E4331
:101BCF001B05551A32461A924519FC471CD250195B
:101BDF005D2D19612E19842B1965231982201CBBC9
:101BEF002A191D480000197CE50AB4FF03750A067F
:101BFF0012186EFC12186EFD12186EFE12186EFF80
:101C0F0090003C020DCE790AA2D5200B14300D099D
:101C1F00B910020404B9080104A2D5200E02500124
:101C2F0004200A68920AB509005034C0E07F2030C2
:101C3F000B197F30A20A720E720D500F121C6EC25A
:101C4F000AC20EC20DC2107F30800F300D03E9C0E3
:101C5F00E01218B1300D03D0E0F9D0E0B509CC3067
:101C6F000D177F30B9100C1218B17F58300C077F49
:101C7F00788003B908031218B1300A057F2D0218B6
:101C8F00B17F202010F87F2B200EF322920A80CFF5
:101C9F007F00B40700500B243CF582E43400F58339
:101CAF00E0FF22286E756C6C2900D20912186E3075
:101CBF0009F8C209780930D50108F602191D2D500F
:101CCF0043495812186E2403B405004001E4901CD8
:101CDF00CD931218A2743A1218A2D20B75090402EE
:021CEF001AF3E6
:100D4700E9D2E7C933E833F892D5EDD2E7CD33ECF2
:070D570033FC5002B2D5226B
:100D5E00EC30E7100FBF000C0EBE00080DBD0004F6
:100D6E000BEB6014A2D5EB13FCED92E7FD2274FFA2
:100D7E00FCFDFEFF22E480F8A2D574FF13FC7D80FB
:030D8E00E480EF0F
:100D9100F920E73624F950037907E4F42402FBE54E
:100DA10082158270021583DBF6E024FB501BE9609B
:100DB10014E4F0E582158270021583E004F0B40AB0
:0D0DC10008E4F0D9EE7401F00A22C2D52238
:100DCE00ED33EC3392D5FA602AB4FF33EDC2E77BF4
:100DDE00FF60067A0D79F3E4227A0D79FC20D504B2
:100DEE007A0D79F7224E614E002B494E46002D4961
:100DFE004E4600E47A08F0A3DAFC7B00740722C0AA
:100E0E0083C082ECC0E0EDC0E0EEC0E0EFC0E0EAEF
:100E1E0075F010A4CAABF075F04DA42BFBE435F0C1
:100E2E00FCEA2410FAEB34C5FBEC34D9FCEDC2E736
:100E3E00FF75F056A4F42411C5F0F434C58FF0A458
:100E4E002AE5F03BE43CF020E714120FFBD0E0FF64
:100E5E00D0E0FED0E0FDD0E0FC120BFF8014F404D5
:100E6E00120FFBD0E0FFD0E0FED0E0FDD0E0FC1290
:100E7E000AF6D082D083E0FAEDD2E7CD33EC3324FC
:100E8E0082FBE4C3CF33CFCE33CECD33CD33DBF3C2
:100E9E007B0775F00A846004F0A31B0AE5F0F0A34B
:100EAE008FF0740AA4FFACF08EF0740AA42CFEAC82
:100EBE00F050010C8DF0740AA42CFDE435F0F0A373
:050ECE00DBDE740722C9
:100ED300020D7CE86480F8E933E83360110460F0C4
:100EE300ED33EC337009E8FCE9FDEAFEEBFF220485
:100EF30060DED3EB9FEA9EE99DE8C2E78CF0C2F780
:100F030095F0400CE8CCF8E9CDF9EACEFAEBCFFB4B
:100F1300120D4785D0F05804700320D5B3E8047050
:100F2300075002B2D5020D8692D5EC0460F7E4CCEB
:100F3300C0E0C398F8603B94186008400DD0E0FB14
:100F4300020D5EE4FBFAC9FC8028E830E406E4C93C
:100F5300FBE4CAFCE830E305E4C9CACBFCE8540768
:100F63006010F8C3E913F9EA13FAEB13FBEC13FC73
:100F7300D8F130F52FC3E49CFCEF9BFFEE9AFEED16
:100F830099FDD0E0FBEF4E4D4C701222DB03020DB6
:100F930083EC2CFCEF33FFEE33FEED33FDED30E756
:100FA300EB020D5EEF2BFFEE3AFEED39FDD0E0FBD9
:100FB30050130BBB0003020D86ED13FDEE13FEEF82
:080FC30013FFEC13FC020D5EAC
:100FCB003F8000004120000042C80000447A00002E
:100FDB00461C400047C35000497424004B189680B0
:100FEB004CBEBC205A0E1BCA6753C21C749DC5AEA7
:100FFB00FB60065407601C2323121029EB54386046
:10100B0009121015121024120AF6ECF8EDF9EEFA8B
:10101B00EFCB22EB12102480F1543803241C900FD9
:10102B00CBFE93FC0EEE93FD0EEE930ECE93FF22B2
:1023F000021CF1E493A3F8E493A34003F68001F2F6
:1024000008DFF48029E493A3F85407240CC8C333ED
:10241000C4540F4420C8834004F456800146F6DFBC
:10242000E4800B0102040810204080902602E47E24
:10243000019360BCA3FF543F30E509541FFEE493B1
:10244000A360010ECF54C025E060A840B8E493A378
:10245000FAE493A3F8E493A3C8C582C8CAC583CAA3
:10246000F0A3C8C582C8CAC583CADFE9DEE780BE5B
:012671000068
:10103B00E709F608DFFA8046E709F208DFFA803E97
:10104B0088828C83E709F0A3DFFA8032E309F60884
:10105B00DFFA8078E309F208DFFA807088828C83EC
:10106B00E309F0A3DFFA806489828A83E0A3F608A0
:10107B00DFFA805889828A83E0A3F208DFFA804C7A
:10108B0080D280FA80C680D4806980F28033801051
:10109B0080A680EA809A80A880DA80E280CA8033BA
:1010AB0089828A83ECFAE493A3C8C582C8CCC58332
:1010BB00CCF0A3C8C582C8CCC583CCDFE9DEE78002
:1010CB000D89828A83E493A3F608DFF9ECFAA9F081
:1010DB00EDFB2289828A83ECFAE0A3C8C582C8CCD7
:1010EB00C583CCF0A3C8C582C8CCC583CCDFEADEF0
:1010FB00E880DB89828A83E493A3F208DFF980CC52
:10110B0088F0EF60010E4E60C388F0ED2402B4044A
:10111B000050B9F582EB2402B4040050AF232345F1
:06112B00822390108B737B
:10113100BB010689828A83E0225002E722BBFE02BC
:09114100E32289828A83E49322EF
:10114A00BB010CE58229F582E5833AF583E022505A
:10115A0006E92582F8E622BBFE06E92582F8E222A4
:0D116A00E58229F582E5833AF583E49322BE
:10117700BB010689828A83F0225002F722BBFE0157
:02118700F32251
:10118900F8BB010DE58229F582E5833AF583E8F09C
:10119900225006E92582C8F622BBFE05E92582C848
:0211A900F22230
:1011AB00A3F8E0C5F025F0F0E582158270021583F7
:0611BB00E0C838F0E82254
:0E11C100C3E49FFFE49EFEE49DFDE49CFC223F
:0C11CF00ECF0A3EDF0A3EEF0A3EFF02293
:1011DB00A8828583F0D083D0821211F21211F21201
:1011EB0011F21211F2E473E493A3C583C5F0C58326
:1011FB00C8C582C8F0A3C583C5F0C583C8C582C85E
:01120B0022C0
:10120C00F8E0FBA3A3E0F925F0F0E582158270026B
:07121C001583E0FA38F0220F
:09122300EBF0A3EAF0A3E9F022CC
:10122C00D083D082F8E4937012740193700DA3A351
:10123C0093F8740193F5828883E473740293686065
:06124C00EFA3A3A380DF65
:102AB500EFB40A07740D122AC0740A309811A89948
:102AC500B8130CC2983098FDA899C298B811F63081
:072AD50099FDC299F5992259
:00000001FF
