:0D2606004A008F00000000000000000000EE
:03001B0002247448
:10247400C0E0C083C082C0D090008FE07002A3E0AF
:10248400600E900090E024FFF090008FE034FFF0A5
:10249400900091E07002A3E0600E900092E024FFAF
:1024A400F0900091E034FFF0900093E07002A3E01C
:1024B400600E900094E024FFF0900093E034FFF06D
:1024C400900095E07002A3E0600E900096E024FF77
:1024D400F0900095E034FFF0900097E07002A3E0E4
:1024E400600E900098E024FFF0900097E034FFF035
:0924F400D0D0D082D083D0E032B8
:102613004100880141007F004100890041008A0098
:101CF100C2AF122B85122C64122C7712233C122AAC
:101D010090122BA07F0A7E00122C21C296122CACBD
:101D1100D2A0D2A1D2CAD284D283D282D2B4D2C822
:101D21007F0A7E00122C217F05122C50EF2480FEA9
:101D3100E434FF90008DF0A3CEF07F0A7E00122CD8
:101D4100217F04122C50EF2480FEE434FF900077B1
:101D5100F0A3CEF07F0A7E00122C217F02122C50BC
:101D6100EF2480FEE434FF90008BF0A3CEF07F0AD5
:101D71007E00122C21122735EF60147FF47E0112B0
:101D81002C21C2A47FF47E01122C21D2A480E61260
:101D910027DE7FF47E01122C211226DEC2A4D2AFEF
:101DA1007F02122C50900084E4F0A3EFF07F017EBB
:101DB10000122C217F03122C50900086E4F0A3EF37
:101DC100F07F017E00122C217F05122C50900082A1
:101DD100E4F0A3EFF07F017E00122C217F04122C8E
:101DE10050900080E4F0A3EFF07F017E00122C21DF
:101DF100900080E0FEA3E0FFC374FF9FFFE49EFE1E
:101E0100900080F0A3EFF090008DE0FCA3E0FDC313
:101E1100EF9DFFEE9CFEC3EF94FFEE648094804043
:101E21000890006574FFF0801FD3EF9400EE64808A
:101E310094805003E4800D90008DA3E0FF9000801A
:101E4100A3E0C39F900065F0900077E0FEA3E0FF60
:101E5100900082E0FCA3E0FDC39FFFEC9EFEC3EF78
:101E610094FFEE64809480400890006674FFF080D7
:101E71001BD3EF9400EE648094805003E4800990BA
:101E81000077A3E0FFC3ED9F900066F090008BE028
:101E9100FEA3E0FF900084E0FCA3E0FDC39FFFEC04
:101EA1009EFEC3EF94FFEE6480948040089000672B
:101EB10074FFF0801BD3EF9400EE64809480500394
:101EC100E4800990008BA3E0FFC3ED9F900067F0D1
:101ED100D3900087E094EB900086E064809480408A
:101EE1002A900065E09420502290007FE0700280EB
:101EF1003A900091E07002A3E07061900088E07078
:101F01005B04F0D2967F647E008045D3900087E029
:101F110094EB900086E064809480403B900065E003
:101F2100D394D0403290007FE0700D04F090009186
:101F3100E4F0A37464F08024900091E07002A3E0C7
:101F4100701A900088E0B40113E4F0D2967F64FE29
:101F5100122C21C2968005E490007FF0900088E069
:101F6100700B900086A3E0900064F08006900064FE
:101F710074FFF020C8089000687401F08005E490B7
:101F81000068F020B4089000697401F08005E490C5
:101F91000069F020820890006A7401F08005E490E5
:101FA100006AF020830890006B7401F08005E490D2
:101FB100006BF020840890006C7401F08005E490BF
:101FC100006CF020CA0890006D7401F08005E49067
:101FD100006DF020A10890006E7401F08005E4907E
:101FE100006EF020A00890006F7401F08005E4906D
:101FF1000070F090008FE07002A3E0702490008FD9
:10200100F0A3740AF0900063E004F0122BD47B017A
:102011007A0079631229C77F057E00122C21122BC9
:10202100BA7B017A00794F12290CEF4E600AE490D5
:10203100008AF090008904F0900093E07002A3E020
:0220410070220B
:10204300900000F0900093F0A37405F01220A2908A
:10205300008AE0C394285005E004F08005E4900072
:0220630089F002
:10206500900095E07002A3E07018900095F0A374BD
:1020750019F0900088E0B40104B2A48002C2A41251
:102085002B03900097E07002A3E06003021DA1906E
:0D2095000097F0A37432F0122A32021DA150
:10125200526F6C6C3A2020302E302020202000501B
:10126200697463683A20302E3020202020005961B2
:10127200773A202020302E302020202000506F7717
:1012820065723A20302E305620202000526F6C6C4E
:101292003A2020252E3166202020200050697463D8
:1012A200683A20252E31662020202000506F776575
:1012B200723A20252E3166562020202000506F776A
:1012C20065723A202020202020202000000000000B
:1012D200000000000000000000000000000000000C
:1012E200000080808000000000000000000080807C
:1012F20000000000000000000000000000000000EC
:1013020000000000000000000000000000000000DB
:1013120000000000000000000000000000000000CB
:1013220000000000000000000000000000000000BB
:1013320000000000000000000000000000000000AB
:10134200000000000000000000000000000000009B
:10135200000000000000000000000000000000008B
:10136200E0F0FF1F070F0E1C78F0F0F0F83E0F0FB1
:101372001FF8E880000000000000000000000000EC
:10138200000000000000000000000000000000005B
:10139200000000000000000000000000000000004B
:1013A200000000000000000000000000000000003B
:1013B200000000000000000000000000000000002B
:1013C200000000000000000000000000000000001B
:1013D200000000000000000000000000000000C843
:1013E200FFFFBF86868686868686FFFFFF86868605
:1013F2008687A7FFF8000000000000000000000040
:1014020000000000000000000000000000000000DA
:1014120000000000000000000000000000000000CA
:1014220000000000000000000000000000000000BA
:1014320000000000000000000000000000000000AA
:10144200000000000000000000000000000000009A
:101452000000000000000000000000000000000F7B
:101462001F1F7F797971F1F1F101010101F17171B0
:10147200311F1F0F0300000000000000FE02FE02E9
:10148200F29792F29792F20200FE02FE00007E4371
:1014920052525EC000000C4454B42407F604040403
:1014A2000C00013DA1BFF0C814D393169848100058
:1014B2000C94D4D4B49596B4D4948C00000000005B
:1014C200000000000000000000000000000000001A
:1014D2000000000000000000000000000000060EF6
:1014E2000E0C1CB8F8F8FCFFFF00000000FFFEFC29
:1014F200F8FEFE8E07030100000000000301030056
:101502000F04040704040F00000301030001010992
:10151200090908070000090909050503030505096A
:101522000900010908080F080B08090C0B0808003C
:10153200080A0A0A0A0F0A0A0A0B0A000000000037
:101542000000000000000000000000000000000099
:1015520000000000000000000000000000001E1E4D
:101562000E0E01010101FFFF0300000000017F7F59
:101572007F010101060606000000000000000000D5
:101582000000000000000000000000000000000059
:101592000000000000000000000000000000000049
:1015A2000000000000000000000000000000000039
:1015B2000000000000000000000000000000000029
:1015C2000000000000000000000000000000000019
:1015D200000000000060C000C0608000806060C049
:1015E20000C0608000806060C000C06080008060D9
:1015F20000000000E0402020C02020E00000E400C5
:101602000000A0A0E00000C060202060C060C00018
:10161200C0608000806000FC000000A0A0E000002C
:10162200FC402020C00000C0A0202000000000C01C
:101632006020202000C060202060C000E040202008
:10164200C02020E0000000000000000000000000B8
:101652000000000000000306010003040300000371
:101662000601000304030000030601000304030053
:101672000004000007000000070000070000070048
:10168200000704040700000306040406030003061F
:101692000100030403000007000007040407000020
:1016A200070404040300000404050300040000030B
:1016B20006040404000306040406030007000000F5
:1016C200070000070000000000000000FF0000000B
:1016D20000E0F8E4E4E4F8E0000000FFFF000000AE
:1016E2000007070707070707000000FFFF001804AD
:1016F20004E4F8E0E0E0E0E0000000FFFF000000AA
:101702000007070707070707000000FFFF00C0C028
:10171200F0F0F0F0F0F0F0F0F0F000FFFF00030363
:101722000F0F0F0F0F0F0F0F0F0F00FFFF00C0C0A3
:10173200F01010101010101010F000FFFF00030343
:101742000F08080808080808080F00FFFF00C0C0BB
:10175200F0F0F0101010101010F000FFFF00030363
:101762000F0F0F0808080808080F00FFFF00C0C08D
:10177200F0F0F0F0F010101010F000FFFF00030383
:101782000F0F0F0F0F080808080F00FFFF00C0C05F
:10179200F0F0F0F0F0F0F01010F000FFFF000303A3
:1017A2000F0F0F0F0F0F0F08080F00FFFF00C040B1
:1017B200701010101010101010F000FFFF00030244
:1017C2000E08080808080808080F00FF00FFFFFFBE
:1017D200FFFFFFFFFFFFFFFFFFFFFF0000FFFFFF15
:1017E200FFFFFFFFFFFFFFFFFFFFFF00FF000010F3
:1017F200387CE8C080000000000000FFFF0000000D
:101802000000000103173E1C080000FFFF0000005B
:10181200000000FCFC0C0C00000000FFFF000000B8
:101822000030303F3F000000000000FFFF000000DA
:1018320000000080C0E07038702000FFFF00040E3E
:101842001C0E070301000000000000FFFF00E0E0A3
:101852008080808080808080808000FFFF00010186
:0C1862000101010101010101070700FF65
:0C2623004100990041009A0041009B001A
:102BA0009000187408F0A374FFF0A37412F0A374DB
:0A2BB000CEF07B80E4FDFF022582D9
:102220009000151211DB00000000122B2690001503
:102230001211CFE4FFFE7D407C40900015E0F8A332
:10224000E0F9A3E0FAA3E0FB120C9C6016401490A6
:10225000001C7402F0A374FFF0A37417F0A374AE13
:102260000223317433FFFEFD7C40900015E0F8A39B
:10227000E0F9A3E0FAA3E0FB120C9C601640149076
:10228000001C7402F0A374FFF0A37417F0A3742E63
:102290000223317F667E667D267C40900015E0F843
:1022A000A3E0F9A3E0FAA3E0FB120C9C6015401335
:1022B00090001C7402F0A374FFF0A37417F0A374D1
:1022C0004E806E7F9A7E997D197C40900015E0F8D3
:1022D000A3E0F9A3E0FAA3E0FB120C9C6015401305
:1022E00090001C7402F0A374FFF0A37417F0A374A1
:1022F0006E803E7FCD7ECC7D0C7C40900015E0F85A
:10230000A3E0F9A3E0FAA3E0FB120C9C90001C6090
:102310001240107402F0A374FFF0A37417F0A374BA
:102320008E800E7402F0A374FFF0A37417F0A374F0
:0B2330000EF07B80E4FD7F701224FDA6
:01233B00227F
:102A0000900088E090001C70107404F0A374FFF034
:102A1000A37416F0A374EE800E7404F0A374FFF098
:102A2000A37416F0A374CEF07B807D027F70122415
:022A3000FD2285
:1028C60090001C7406F0900099E0FF3395E0FEEF4F
:1028D6007805C333CE33CED8F924EEF974173EFA11
:1028E60090001D74FFF0A3EAF0A3E9F07B807D045D
:1028F6007F701224FD900099E004F0E0C364809498
:05290600844002E4F032
:01290B0022A9
:1026DE007BFF7A127952E4FDFF12278A7BFF7A1272
:1026EE0079617D02E4FF12278A7BFF7A1279707D71
:1026FE0004E4FF12278A7BFF7A12797F7D06E4FFBE
:10270E0012278A122220122A001228C6900018744C
:10271E0008F0A374FFF0A37417F0A374CEF07B80BF
:07272E007D067F7002258289
:1020A2009000011211DB0000000090009BE004F0A0
:1020B200E0C3648094844002E4F090009BE0704CA2
:1020C200900050E0FC120D139000011211CF90000D
:1020D2001874FFF0A37412F0A3748EF0900001E064
:1020E200FCA3E0FDA3E0FEA3E0FF90001B1211CFD2
:1020F2007B017A0079051218D3E4900013F07B017A
:102102007A007905FDFF12278A12222090009BE0B7
:102112006401704D900051E0FC120D139000011209
:1021220011CF90001874FFF0A37412F0A3749EF004
:10213200900001E0FCA3E0FDA3E0FEA3E0FF90001D
:102142001B1211CF7B017A0079051218D3E490009B
:1021520013F07B017A0079057D02FF12278A122A89
:102162000090009BE0640260030221EE90004FE0C9
:10217200FC120D13E4FBFA79207841120BFF900058
:10218200011211CF90001874FFF0A37412F0A3741F
:10219200AEF0900001E0FCA3E0FDA3E0FEA3E0FFAF
:1021A20090001B1211CF7B017A0079051218D3E43B
:1021B200900013F0122CBBEF4E602490009AE004C2
:1021C200F0E0FFC39405400FEF940A4002E4F07B75
:1021D200FF7A1279BF800E7B017A00790580067B37
:1021E200017A0079057D06E4FF12278A90009BE0C0
:1021F200B403287BFF7A1279707D04E4FF12278AE8
:102202009000187408F0A374FFF0A37417F0A3747D
:0E221200CEF07B807D067F701225820228C6EA
:032CE300C2A42266
:052CDE00A5A5A5A5A5B8
:10262F0054006300000000000000000000000000E4
:10263F000000000000000054004F000000000000E8
:10264F000000000000000000000000000000450036
:0E265F004A3443101001450045344310100169
:102AE000E4FDFCC3ED9FEC9E50070DBD00010C8082
:102AF000F2E4FCFDC3ED9FEC9E50070DBD00010C00
:022B000080F261
:012B020022B0
:042C3A007F0C7E008D
:102C3E00D3EF9400EE9400400800EF1F70F21E8058
:022C4E00EF2273
:1027DE007FB07E04122C3EC2B6D2C2C2B57B017A45
:1027EE0000794A90000A7405F07F3012288D122865
:1027FE007F7D017F21122C0E7D017F22122C0E7DFA
:10280E001A7F24122C0EE4FD7F25122C0E7D147FD0
:10281E0031122C0E7D077F26122C0E7D7C7F20021E
:02282E002C0E6E
:0A2A6200EBF0A3EAF0A3E9F0C2C212
:022A6C00AD07B4
:102A6E00E4FBED3392C1ED25E0FDD2B5122C3AA276
:102A7E00C9E4334DFD122C3AC2B50BEBB408E3AFEB
:012A8E000542
:012A8F002224
:022B6700AD07B8
:102B6900C2C2122C3AAF05122A6C122C3AE4FF1297
:0B2B79002A6CAD07122C3AD2C2AF0547
:012B8400222E
:062C0800C2B67DFF7F272C
:022C0E00AC0513
:102C1000C2C2122A6CAA07AF04122A6CD2C2AF0237
:012C20002291
:03295200900007EB
:10295500122A6290000BEFF0E4FC90000AE0FFEC15
:10296500C39F501CE4FF122A6C900007E0FBA3E014
:10297500FAA3E0F98C82758300EF1211890C80DAD5
:07298500D2C290000BE0FF3D
:01298C002228
:0E287F007B017A00794590000A7405F07F2AEB
:03288D00900007B1
:10289000122A6290000BEFF0E4FC90000AE0FFECDB
:1028A000C39F501A900007E0FBA3E475F0011211DA
:1028B000ABA9F0FA121131FF122A6C0C80DCD2C2E3
:0528C00090000BE0FF99
:0128C50022F0
:102BBA00122C08E4FD7FE2122C0E7D7F7F20122C5E
:0A2BCA000ED2B67F287E0A022C3ED0
:102BD400122C08E4FD7FE1122C0E7D7E7F20122C46
:0A2BE4000ED2B67F287E0A022C3EB6
:10290C00900001EBF0A3EAF0A3E9F07F07122B672C
:10291C008F20AD207F27122C0E300626C2B69000D9
:10292C0001E0FBA3E0FAA3E0F990000A7414F07F35
:10293C0061122952E4FD7FE2122C0ED2B67E007F8A
:06294C000122E4FEFF225F
:1029C700900001EBF0A3EAF0A3E9F0122C0A7DFFD7
:1029D7007FE1122C0EC2B612287F900001E0FBA304
:1029E700E0FAA3E0F990000A7414F07FA012288D92
:0929F700D2B67FC87E00022C3E1E
:1027350078017C007D017BFF7A2C79DE7E007F05A8
:1027450012110B7B017A00790190000A7405F07F64
:102755003012288D7B017A00790190000A7405F00A
:102765007F10122952E4FF74012FF582E43400F53D
:1027750083E0B4A5050FEFB405EDEF640560037FB5
:0427850001227F00AE
:01278900222D
:100003007F07122B67AC077F17122B67ECB42E0602
:06001300EFB41102B2A4DB
:0100190022C4
:10001E000000000000000000002F0000000007009C
:10002E00070000147F147F1400242A7F2A12006216
:10003E0064081323003649552250000005030000C2
:10004E0000001C224100000041221C000014083E4A
:10005E0008140008083E0808000000A06000000810
:10006E000808080800006060000000201008040264
:10007E00003E5149453E0000427F40000042615122
:10008E004946002141454B31001814127F100027BC
:10009E0045454539003C4A4949300001710905037F
:1000AE0000364949493600064949291E00003636B0
:1000BE000000000056360000000814224100001413
:1000CE0014141414000041221408000201510906F0
:1000DE0000324959513E007C1211127C007F494971
:1000EE004936003E41414122007F4141221C007FA2
:1000FE0049494941007F09090901003E4149497AB0
:10010E00007F0808087F0000417F41000020404129
:10011E003F01007F08142241007F40404040007F95
:10012E00020C027F007F0408107F003E4141413ED9
:10013E00007F09090906003E4151215E007F091921
:10014E0029460046494949310001017F0101003F1E
:10015E004040403F001F2040201F003F4038403F9E
:10016E000063140814630007087008070061514902
:10017E00454300007F41410000552A552A55000095
:10018E0041417F0000040201020400404040404013
:10019E00000001020400002054545478007F4844AB
:1001AE00443800384444442000384444487F0038E2
:1001BE005454541800087E0901020018A4A4A47C0B
:1001CE00007F080404780000447D400000408084D5
:1001DE007D00007F102844000000417F4000007C1D
:1001EE0004180478007C0804047800384444443829
:1001FE0000FC242424180018242418FC007C080475
:10020E00040800485454542000043F444020003C4D
:10021E004040207C001C2040201C003C4030403CD4
:10022E00004428102844001CA0A0A07C0044645464
:10023E004C441414141414140000000000000000A8
:10024E000000000000000000000000F800000000A8
:10025E00000000333000000000100C06100C0600E9
:10026E00000000000000000040C07840C078400050
:10027E00043F04043F040400007088FC08300000B2
:10028E00001820FF211E0000F008F000E01800000A
:10029E0000211C031E211E0000F0088870000000C3
:1002AE001E2123241927211010160E000000000015
:1002BE000000000000000000000000E01804020032
:1002CE00000000071820400000020418E0000000A3
:1002DE000040201807000000404080F080404000A1
:1002EE000202010F01020200000000F000000000F7
:1002FE000101011F010101000000000000000000CB
:10030E0080B070000000000000000000000000003F
:10031E0000010101010101010000000000000000C8
:10032E000030300000000000000000008060180463
:10033E00006018060100000000E010080810E00040
:10034E00000F102020100F00001010F80000000009
:10035E000020203F20200000007008080888700050
:10036E0000302824222130000030088888483000D0
:10037E000018202020110E000000C02010F80000F0
:10038E0000070424243F240000F808888808080089
:10039E000019212020110E0000E01088881800009E
:1003AE00000F112020110E0000380808C838080070
:1003BE000000003F000000000070880808887000F0
:1003CE00001C222121221C0000E010080810E00071
:1003DE000000312222110F00000000C0C0000000FA
:1003EE00000000303000000000000080000000001F
:1003FE000000806000000000000080402010080017
:10040E0000010204081020004040404040404000DF
:10041E0004040404040404000008102040800000BA
:10042E000020100804020100007048080808F000BF
:10043E000000003036010000C030C828E810E0008F
:10044E000718272423140B000000C038E00000001A
:10045E00203C23020227382008F888888870000084
:10046E00203F202020110E00C03008080808380058
:10047E00071820202010080008F808080810E000CF
:10048E00203F202020100F0008F88888E808100070
:10049E00203F20202320180008F88888E808100044
:1004AE00203F200003000000C0300808083800007C
:1004BE0007182020221E020008F808000008F8087D
:1004CE00203F210101213F20000808F80808000004
:1004DE000020203F2020000000000808F808080037
:1004EE00C08080807F00000008F888C028180800AF
:1004FE00203F20012638200008F8080000000000E8
:10050E00203F20202020300008F8F800F8F80800DE
:10051E00203F003F003F200008F830C00008F808D8
:10052E00203F200007183F00E01008080810E000E8
:10053E000F10202020100F0008F808080808F000FF
:10054E00203F210101010000E01008080810E00022
:10055E000F18242438504F0008F8888888887000B7
:10056E00203F2000030C3020007088080808380057
:10057E000038202121221C00180808F8080818004D
:10058E000000203F2000000008F808000008F808CE
:10059E00001F202020201F000878880000C838087F
:1005AE00000007380E010000F80800F80008F800F7
:1005BE00033C0700073C0300081868808068180891
:1005CE0020302C03032C30200838C800C83808000F
:1005DE000000203F2000000010080808C83808005E
:1005EE002038262120201800000000FE0202020002
:1005FE000000007F40404000000C30C000000000B2
:10060E00000000010638C00000020202FE000000D9
:10061E00004040407F00000000000402020204007F
:10062E0000000000000000000000000000000000BC
:10063E0080808080808080800002020400000000A4
:10064E00000000000000000000008080808000009C
:10065E000019242222223F2008F80080800000008A
:10066E00003F112020110E0000000080808000004D
:10067E00000E112020201100000000808088F8005C
:10068E00000E112020103F2000008080808000008E
:10069E00001F222222221300008080F088888818F2
:1006AE000020203F202000000000808080808000FD
:1006BE00006B94949493600008F800808080000092
:1006CE00203F210000203F2000809898000000006D
:1006DE000020203F2020000000000080989800009D
:1006EE0000C08080807F000008F8000080808000BD
:1006FE00203F24022D302000000808F800000000E2
:10070E000020203F2020000080808080808080009C
:10071E00203F20003F20003F80800080808000002E
:10072E00203F210000203F200000808080800000BC
:10073E00001F202020201F008080008080000000ED
:10074E0080FFA12020110E0000000080808080001C
:10075E00000E112020A0FF8080808000808080000D
:10076E0020203F212000010000008080808080003A
:10077E000033242424241900008080E080800000AF
:10078E000000001F202000008080000000808000FC
:10079E00001F202020103F2080808000008080805D
:1007AE0000010E30080601008080008000808080ED
:1007BE000F300C030C300F00008080008080800012
:1007CE000020312E0E31200080808000008080803D
:1007DE0080818E70180601000080808080808000ED
:1007EE000021302C2221300000000000807C02020B
:1007FE0000000000003F404000000000FF0000002D
:10080E0000000000FF0000000002027C80000000DB
:10081E000040403F000000000006010102020404F7
:10082E0000000000000000001060028C000E22127A
:10083E000AC20A12220E0000000000000000000092
:10084E00000000000000000004047E0120211109B8
:10085E0005FF050911212000000000000000000026
:10086E000000000000000000202020FF202000FFDC
:10087E000000FE0000FF000000000000000000006D
:10088E0000000000000000001030100F0888601FEC
:10089E0000003F0000FF000000000000000000000C
:1008AE00000000000000000000088888888889FA8F
:1008BE00888888888808000000000000000000007A
:1008CE00000000000000000000003F00000000FFDC
:1008DE00000010201F0000000000000000000000BB
:1008EE00000000000000000000FC0404FC0004C432
:1008FE005F44C4445FC40400000000000000000018
:10090E000000000000000000000F04040F0000FFB4
:10091E0044447F4444FF000000000000000000003B
:10092E00000000000000000000FC0404FC0000FCBD
:10093E0004060544847C0000000000000000000056
:10094E000000000000000000000F04040F00101350
:10095E001212125292423E000000000000000000EF
:10096E000000000000000000100C04841464050652
:10097E00F404040404140C00000000000000000045
:10098E000000000000000000048484444724140C7E
:10099E00070C142444840400000000000000000032
:1009AE00000000000000000002FA8282FE8040205B
:1009BE00504C434C5020400000000000000000004E
:1009CE00000000000000000008184884443F404426
:1009DE0058414E60584740000000000000000000E3
:1009EE000000000000000000100C2424A464252642
:1009FE002424A42424140C00000000000000000095
:100A0E000000000000000000404048494949497F6D
:100A1E004949494B484040000000000000000000DA
:100A2E00000000000000000004244484649C403058
:100A3E000FC8080828180000000000000000000081
:100A4E00000000000000000010080601824C201873
:100A5E000601061820408000000000000000000083
:100A6E000000000000000000404042CC0000FC04EA
:100A7E000200FC0404FC0000000000000000000066
:100A8E0000000000000000000040201F20404F44E6
:100A9E0042407F424443400000000000000000003E
:100AAE000000000000000000201008FC23108867E2
:100ABE0004F40424548C0000000000000000000028
:100ACE00000000000000000040300077808188B2F6
:100ADE00848380E000116000000000000000000030
:080AEE00000000000000000000
:102BEE00E4FDFCC3ED9FEC9E500F79147B71DBFE70
:092BFE00D9FC0DBD00010C80EAB8
:012C070022AA
:10298D00F583E5822CF582E43583F583E493FF7DB1
:01299D000138
:10299E00ED6004D2CB8002C2CBC294E4FEC287EFBC
:1029AE0030E704D2868002C286D287EF25E0FF0E82
:0829BE00EEB408E9D294D2CB7B
:0129C60022EE
:102B4700AC07ED24B0FFE4FD12299EEC54F0C45409
:102B57000F4410FF12299EEC540F4401FF02299ED7
:102C8A00E4FD7F8D12299E7F1412299E7FAF0229AF
:012C9A009E9B
:102C9B00E4FD7F8D12299E7F1012299E7FAE0229A3
:012CAB009E8A
:102A9000E4FCEC24B0FFE4FD12299EE4FF12299E21
:102AA0007F1012299EE4FB7D01E4FF12299E0BEBAF
:082AB000B480F40CECB408DA68
:012AB80022FB
:06267600AA07A905AF034D
:10267C00E4FCEF24E0FBEAD3947F4004E4FA09097C
:10268C00AF02AD01122B47E4FC75F010EBA42CF556
:10269C0082E435F0F583E5822446F582E583340245
:1026AC001229970CECB408E1AF02E904FD122B4798
:1026BC00E4FC75F010EBA42CF582E435F0F583E521
:1026CC0082244EF582E58334021229970CECB4086F
:0226DC00E122F9
:10278A00900015EFF0A3EDF0A3EBF0A3EAF0A3E9B4
:01279A00F04E
:10279B00E4A3F0900017E0FBA3E0FAA3E0F9A3E0B9
:1027AB00F58275830012114AFB6027900015E0FF3C
:1027BB00A3E0FD122676900015E02408F0E0D394F8
:1027CB00784007E4F0A3E02402F090001AE004F054
:0227DB0080C1BB
:0127DD0022D9
:04283000A907AA0545
:10283400E490009EF0122B47E4FC75F040EBA424D6
:1028440036F582E5F0340812298D90009EE004F0FC
:102854000CECB410E5AF01EA04FD122B47E4FC755F
:10286400F040EBA42456F582E5F0340812298D904B
:0A287400009EE004F00CECB410E547
:01287E002237
:0A258200900015EFF0900017EBF049
:10258C00E490001CF0A3F0900018E0FF54077008D2
:10259C00EF131313541F800A900018E013131354F5
:1025AC001F0490001EF090001EEDF0900018E0FF4C
:1025BC0090001EE0FDC39F5040900015E0FF122BD1
:1025CC0047E0FC900017E0FFECC39F5024900019EB
:1025DC00E0FBA3E0FAA3E0F9A3E475F0011211AB60
:1025EC0085F082F58312114AFF7D0112299E0C8021
:0925FC00D290001EE004F080B250
:0126050022B2
:0A24FD00900019EFF090001BEBF0C7
:10250700E4900020F0A3F090001CE0FF540770084F
:10251700EF131313541F800A90001CE01313135476
:102527001F04900022F0900022EDF090001CE0FFC5
:10253700900022E0FDC39F5041900019E0FF122B4D
:1025470047E0FC90001BE0FFECC39F502590001D67
:10255700E0FBA3E0FAA3E0F9A3E475F0011211ABE5
:1025670085F082F58312114AF4FF7D0112299E0C32
:0A25770080D1900022E004F080B152
:012581002237
:10233C00D2857F647E00122BEEC285122BEED285E5
:10234C00E4FD7FAE12299EE4FF12299E7F10122914
:10235C009E7F4012299E7F8112299E7FCF12299E3B
:10236C007FA112299E7FC812299E7FA612299E7FCB
:10237C00A812299E7F3F12299E7FD312299EE4FF2B
:10238C0012299E7FD512299E7F8012299E7FD912F9
:10239C00299E7FF112299E7FDA12299E7F12122923
:1023AC009E7FDB12299E7F4012299E7F2012299E40
:1023BC007F0212299E7F8D12299E7F1412299E7FE7
:1023CC00A412299E7FA612299E7FAF12299E7FAF51
:0C23DC0012299E122A90E4FDFF022B47FC
:08266D0041009D0041009C00AA
:102B26007F01122C50AC07E4120D13E4FBFA7980F6
:102B36007843120BFF7BD77AA379A07840120AF666
:012B4600226C
:102A320090004FE0C36480949F501F90009CE0047C
:102A4200F0E0C3940A4018900089E0B401119000AC
:0F2A520088E0700B90009D04F022E490009CF04F
:012A61002252
:102B0300900088E0B40105E490009DF0900089E016
:102B1300700490009DF090009DE0B40103B29622F2
:032B2300C2962235
:0A2CBB0090009DE0FF3395E0FE223B
:0F2CAC00439D3CE4F5BD75BC807F0AFE022C21E0
:102C5000EF4488F5BC00000000E5BC30E4FB53BC49
:042C6000EFAFBD22F3
:082CC5007F147E71DEFEDFFCCE
:012CCD0022E4
:042C2100AD07AC0649
:102C2500E4FBFAC3EB9DEA9C500A122CC50BBB00D2
:042C3500010A80EF21
:012C39002278
:102B8500E4F594F593759240F591F596F595F5B2C2
:0B2B9500F5B1F5B4F5B3F5CAF5C9229F
:102C6400538EBF53890F758BE5758DBEC28FD28E7F
:032C7400D2AB22BE
:102C7700759850438E0475D7D575D6FF438E01439B
:032C87008E10228A
:072CCE003098FDC298AF9998
:012CD50022DC
:082CD6008F993099FDC299228B
:030000000223E8F0
:0C23E800787FE4F6D8FD75812202242FD6
:100AF600EC4D6011E8497017ED33EC3304600DE4FA
:100B0600FCFFFEFD22E933E8330470F8020D7C1287
:100B16000D4758046009E4CC248150062850090288
:100B26000D86284003020D83C0E0EB4A7044B9806D
:100B360006D0E0FB020D72EF4E701CBD8008EBFF85
:100B4600EAFEE9FD80EBE98DF0A4FEE5F0020BDF9D
:100B5600E9CDF9EAFEEBFFEF89F0A4FCE5F0CE89DA
:100B6600F0A42EFFE435F0CD89F0A42DFEE435F097
:100B76008067EF4E7005BD80D780C3EF8BF0A4ACC5
:100B8600F0EE8BF0A42CFCE435F0F8EF8AF0A42C00
:100B9600E5F038FCE433CB8DF0A42CFCE5F03BF813
:100BA600EE8AF0A42CFCE5F038F8E433CF89F0A403
:100BB6002CFCE5F038CF3400CE89F0A42FFFE5F009
:100BC6003EFEE433C98DF0A42EFEE5F039CD8AF061
:100BD600A42FFFE5F03EFEE43DFD33D0E0FB5007D9
:100BE6000BBB000F020D86EC2CFCEF33FFEE33FE41
:060BF600ED33FD020D5E6F
:100BFC00020D86EC5D046005E859047003020D7C5F
:100C0C00120D47580460F6EC4860F2EC7004FDFEDF
:100C1C00FF22C860DB2481C85009C39860025006CB
:100C2C00020D839850CAF582E9294B4A7005AB82B4
:100C3C00020D7275F0007C1A7880C3EF9BEE9AED72
:100C4C0099400DC3EF9BFFEE9AFEED99FDE842F043
:100C5C00DC23ACF0D0E0FFD0E0FED0E0FDAB822096
:100C6C00E7101BEB60BAEC2CFCEF33FFEE33FEED20
:100C7C0033FD020D5EE803F830E705C0F075F000B7
:100C8C00EF2FFFEE33FEED33FD40B830E7C280AA04
:100C9C0074F8CC6480CCC86480C8F582046043C30B
:100CAC00EB9FF5F0EA9E42F0E99D42F0E89C45F09E
:100CBC0060305018E5825FFFE582F42B5582FB50C3
:100CCC00210ABA001D09B90019088016E5825BFBE0
:100CDC00E582F42F5582FF50090EBE00050DBD00B4
:100CEC00010CC3EB9FF5F0EA9E42F0E99D42F0E85F
:0D0CFC009C45F06007CC4820E701B3EC22D6
:100D090075F020800E75F010800575F0087D007E65
:100D1900007F003392D530D5031211C1EC33401056
:100D2900EF33FFEE33FEED33FDEC33FCD5F0ED226E
:0E0D3900E5F0247EA2D513CC92E7CDCEFF22AA
:10186E00E5082418F582E43400F583E0050822909B
:10187E000015300F03900018E475F00112120C02DF
:10188E0011312008E97F2ED2088018EF540F2490D2
:10189E00D43440D4FF300C0BEF24BFB41A005003E5
:1018AE002461FFE50960021509050CE50C700205BF
:1018BE000B300F0E900015E475F00112120CEF02B2
:1018CE001177022AB97403D20F8003E4C20FF50810
:1018DE00900015121223E4F509F50BF50CE50960DD
:1018EE00077F201218B180F5750AFFC209C208C21F
:1018FE000AC20BC20DC20EC21012187DFF700D303F
:10190E000F057F001218C2AF0CAE0B22B4255FC2BA
:10191E00D5C20C12187DFF24D0B40A00501A75F0EF
:10192E000A780930D50508B6FF0106C6A426F620AA
:10193E00D5047002D20B80D924CFB41A00EF500414
:10194E00C2E5D20C021BB4D20980C6D20880C0D226
:10195E000A80BCD2D580BAD20D80B47F201218B1C5
:10196E00200A077401B5090040F112186EFF121813
:10197E00B10218EBD210D20E809512186EFB12180F
:10198E006EFA12186EF94A4B700679B27A1C7BFF0A
:10199E00200A2EE509602A7E008E827583001211C0
:1019AE004A60060EEE650A70F0C2D5EBC0E0EAC0E2
:1019BE00E0E9C0E0EE121C15D0E0F9D0E0FAD0E07C
:1019CE00FB121131FF60AAEBC0E0EAC0E0E9C0E013
:1019DE001218B1D0E02401F9D0E03400FAD0E0FBC7
:1019EE00E50A0460DCD50AD98087D20A80A2121BD0
:1019FE00F760F7E50A700104120D91A90A600DE572
:101A0E000A600914F50A121C9FEF60F3EA30E70230
:101A1E00F404C3995079EAF4250A0430E701E4048A
:101A2E00F50A800D121BF760C1EA050A250A120D90
:101A3E0091EA900044F030E701E4250A04D50A0447
:101A4E00200D0114121C15E4C0E0121C9F900044DE
:101A5E00E0601320E70714F0121899802204F0D0EA
:101A6E00E014C0E07F00121899E50A600712189082
:101A7E00150A800B300D03121890D0E00218EBD02F
:101A8E00E00480C4121BF7609EE50A04120D9190CB
:101A9E000044EAF0E50A200D026001042404121C41
:011AAE001522
:101AAF0074FF04C0E0121C9F121899E50A200D0262
:101ABF006003121890D0E0B50AE87F451218A39082
:101ACF000044E07F2B30E7047F2DF404C0E01218B0
:101ADF00B1D0E075F00A84C0F012189AD0E0121855
:101AEF009A0218EB791080027908C20EC210800892
:101AFF00D2D5790A8004790AC2D5E50A047002F5B5
:101B0F000AE4FAFDFEFF12186EFC7B08200913127F
:101B1F00186EFD7B1030080A12186EFE12186EFF39
:101B2F007B20EC3382D592D55013C3E43008069F47
:101B3F00FFE49EFEE42009039DFDE49CFCE4CBF84A
:101B4F00C209EC700CCFCECDCCE824F8F870F3803E
:101B5F0017C3EF33FFEE33FEED33FDEC33FCEB3306
:101B6F00FB994002FB0FD8E9EB300905F8D0E0C430
:101B7F0048B209C0E00AEC4D4E4F78207B0070C28E
:101B8F00EAB50A0040BCC0E0121C17D0F0D0E0202C
:101B9F000904C4C0E0C4B209C0F012189AD0F0D53D
:101BAF00F0EB0218EB12122C1988531AF35819592B
:101BBF004C1955421AF74F1AFF441AFF49196E4331
:101BCF001B05551A32461A924519FC471CD250195B
:101BDF005D2D19612E19842B1965231982201CBBC9
:101BEF002A191D480000197CE50AB4FF03750A067F
:101BFF0012186EFC12186EFD12186EFE12186EFF80
:101C0F0090003D020DCE790AA2D5200B14300D099C
:101C1F00B910020404B9080104A2D5200E02500124
:101C2F0004200A68920AB509005034C0E07F2030C2
:101C3F000B197F30A20A720E720D500F121C6EC25A
:101C4F000AC20EC20DC2107F30800F300D03E9C0E3
:101C5F00E01218B1300D03D0E0F9D0E0B509CC3067
:101C6F000D177F30B9100C1218B17F58300C077F49
:101C7F00788003B908031218B1300A057F2D0218B6
:101C8F00B17F202010F87F2B200EF322920A80CFF5
:101C9F007F00B40700500B243DF582E43400F58338
:101CAF00E0FF22286E756C6C2900D20912186E3075
:101CBF0009F8C209780930D50108F602191D2D500F
:101CCF0043495812186E2403B405004001E4901CD8
:101CDF00CD931218A2743A1218A2D20B75090402EE
:021CEF001AF3E6
:100D4700E9D2E7C933E833F892D5EDD2E7CD33ECF2
:070D570033FC5002B2D5226B
:100D5E00EC30E7100FBF000C0EBE00080DBD0004F6
:100D6E000BEB6014A2D5EB13FCED92E7FD2274FFA2
:100D7E00FCFDFEFF22E480F8A2D574FF13FC7D80FB
:030D8E00E480EF0F
:100D9100F920E73624F950037907E4F42402FBE54E
:100DA10082158270021583DBF6E024FB501BE9609B
:100DB10014E4F0E582158270021583E004F0B40AB0
:0D0DC10008E4F0D9EE7401F00A22C2D52238
:100DCE00ED33EC3392D5FA602AB4FF33EDC2E77BF4
:100DDE00FF60067A0D79F3E4227A0D79FC20D504B2
:100DEE007A0D79F7224E614E002B494E46002D4961
:100DFE004E4600E47A08F0A3DAFC7B00740722C0AA
:100E0E0083C082ECC0E0EDC0E0EEC0E0EFC0E0EAEF
:100E1E0075F010A4CAABF075F04DA42BFBE435F0C1
:100E2E00FCEA2410FAEB34C5FBEC34D9FCEDC2E736
:100E3E00FF75F056A4F42411C5F0F434C58FF0A458
:100E4E002AE5F03BE43CF020E714120FFBD0E0FF64
:100E5E00D0E0FED0E0FDD0E0FC120BFF8014F404D5
:100E6E00120FFBD0E0FFD0E0FED0E0FDD0E0FC1290
:100E7E000AF6D082D083E0FAEDD2E7CD33EC3324FC
:100E8E0082FBE4C3CF33CFCE33CECD33CD33DBF3C2
:100E9E007B0775F00A846004F0A31B0AE5F0F0A34B
:100EAE008FF0740AA4FFACF08EF0740AA42CFEAC82
:100EBE00F050010C8DF0740AA42CFDE435F0F0A373
:050ECE00DBDE740722C9
:100ED300020D7CE86480F8E933E83360110460F0C4
:100EE300ED33EC337009E8FCE9FDEAFEEBFF220485
:100EF30060DED3EB9FEA9EE99DE8C2E78CF0C2F780
:100F030095F0400CE8CCF8E9CDF9EACEFAEBCFFB4B
:100F1300120D4785D0F05804700320D5B3E8047050
:100F2300075002B2D5020D8692D5EC0460F7E4CCEB
:100F3300C0E0C398F8603B94186008400DD0E0FB14
:100F4300020D5EE4FBFAC9FC8028E830E406E4C93C
:100F5300FBE4CAFCE830E305E4C9CACBFCE8540768
:100F63006010F8C3E913F9EA13FAEB13FBEC13FC73
:100F7300D8F130F52FC3E49CFCEF9BFFEE9AFEED16
:100F830099FDD0E0FBEF4E4D4C701222DB03020DB6
:100F930083EC2CFCEF33FFEE33FEED33FDED30E756
:100FA300EB020D5EEF2BFFEE3AFEED39FDD0E0FBD9
:100FB30050130BBB0003020D86ED13FDEE13FEEF82
:080FC30013FFEC13FC020D5EAC
:100FCB003F8000004120000042C80000447A00002E
:100FDB00461C400047C35000497424004B189680B0
:100FEB004CBEBC205A0E1BCA6753C21C749DC5AEA7
:100FFB00FB60065407601C2323121029EB54386046
:10100B0009121015121024120AF6ECF8EDF9EEFA8B
:10101B00EFCB22EB12102480F1543803241C900FD9
:10102B00CBFE93FC0EEE93FD0EEE930ECE93FF22B2
:1023F400021CF1E493A3F8E493A34003F68001F2F2
:1024040008DFF48029E493A3F85407240CC8C333E9
:10241400C4540F4420C8834004F456800146F6DFB8
:10242400E4800B0102040810204080902606E47E1C
:10243400019360BCA3FF543F30E509541FFEE493AD
:10244400A360010ECF54C025E060A840B8E493A374
:10245400FAE493A3F8E493A3C8C582C8CAC583CA9F
:10246400F0A3C8C582C8CAC583CADFE9DEE780BE57
:012675000064
:10103B00E709F608DFFA8046E709F208DFFA803E97
:10104B0088828C83E709F0A3DFFA8032E309F60884
:10105B00DFFA8078E309F208DFFA807088828C83EC
:10106B00E309F0A3DFFA806489828A83E0A3F608A0
:10107B00DFFA805889828A83E0A3F208DFFA804C7A
:10108B0080D280FA80C680D4806980F28033801051
:10109B0080A680EA809A80A880DA80E280CA8033BA
:1010AB0089828A83ECFAE493A3C8C582C8CCC58332
:1010BB00CCF0A3C8C582C8CCC583CCDFE9DEE78002
:1010CB000D89828A83E493A3F608DFF9ECFAA9F081
:1010DB00EDFB2289828A83ECFAE0A3C8C582C8CCD7
:1010EB00C583CCF0A3C8C582C8CCC583CCDFEADEF0
:1010FB00E880DB89828A83E493A3F208DFF980CC52
:10110B0088F0EF60010E4E60C388F0ED2402B4044A
:10111B000050B9F582EB2402B4040050AF232345F1
:06112B00822390108B737B
:10113100BB010689828A83E0225002E722BBFE02BC
:09114100E32289828A83E49322EF
:10114A00BB010CE58229F582E5833AF583E022505A
:10115A0006E92582F8E622BBFE06E92582F8E222A4
:0D116A00E58229F582E5833AF583E49322BE
:10117700BB010689828A83F0225002F722BBFE0157
:02118700F32251
:10118900F8BB010DE58229F582E5833AF583E8F09C
:10119900225006E92582C8F622BBFE05E92582C848
:0211A900F22230
:1011AB00A3F8E0C5F025F0F0E582158270021583F7
:0611BB00E0C838F0E82254
:0E11C100C3E49FFFE49EFEE49DFDE49CFC223F
:0C11CF00ECF0A3EDF0A3EEF0A3EFF02293
:1011DB00A8828583F0D083D0821211F21211F21201
:1011EB0011F21211F2E473E493A3C583C5F0C58326
:1011FB00C8C582C8F0A3C583C5F0C583C8C582C85E
:01120B0022C0
:10120C00F8E0FBA3A3E0F925F0F0E582158270026B
:07121C001583E0FA38F0220F
:09122300EBF0A3EAF0A3E9F022CC
:10122C00D083D082F8E4937012740193700DA3A351
:10123C0093F8740193F5828883E473740293686065
:06124C00EFA3A3A380DF65
:102AB900EFB40A07740D122AC4740A309811A89940
:102AC900B8130CC2983098FDA899C298B811F6307D
:072AD90099FDC299F5992255
:00000001FF
